{
  "_format": "hh-sol-artifact-1",
  "contractName": "RelayProxy",
  "sourceName": "contracts/RelayProxy.sol",
  "abi": [
    {
      "inputs": [
        {
          "internalType": "address payable",
          "name": "signer",
          "type": "address"
        },
        {
          "internalType": "uint256",
          "name": "amount",
          "type": "uint256"
        },
        {
          "components": [
            {
              "internalType": "uint256",
              "name": "nonce",
              "type": "uint256"
            },
            {
              "internalType": "uint256",
              "name": "expiry",
              "type": "uint256"
            },
            {
              "internalType": "address",
              "name": "spender",
              "type": "address"
            },
            {
              "internalType": "bool",
              "name": "allowed",
              "type": "bool"
            },
            {
              "internalType": "uint8",
              "name": "v",
              "type": "uint8"
            },
            {
              "internalType": "bytes32",
              "name": "r",
              "type": "bytes32"
            },
            {
              "internalType": "bytes32",
              "name": "s",
              "type": "bytes32"
            }
          ],
          "internalType": "struct RelayProxy.EIP712DaiPermitTxData",
          "name": "daiPermit",
          "type": "tuple"
        },
        {
          "components": [
            {
              "internalType": "address",
              "name": "module",
              "type": "address"
            },
            {
              "internalType": "address",
              "name": "inputToken",
              "type": "address"
            },
            {
              "internalType": "address",
              "name": "witness",
              "type": "address"
            },
            {
              "internalType": "bytes",
              "name": "data",
              "type": "bytes"
            },
            {
              "internalType": "bytes32",
              "name": "secret",
              "type": "bytes32"
            }
          ],
          "internalType": "struct RelayProxy.LimitOrder",
          "name": "order",
          "type": "tuple"
        }
      ],
      "name": "limitOrder",
      "outputs": [],
      "stateMutability": "nonpayable",
      "type": "function"
    }
  ],
  "bytecode": "0x608060405234801561001057600080fd5b5061052e806100206000396000f3fe608060405234801561001057600080fd5b506004361061002b5760003560e01c806366f2952814610030575b600080fd5b61004361003e366004610333565b610045565b005b738f3cf7ad23cd3cadbd9735aff958023239c6a063638fcbaf0c8561007060608601604087016103b0565b853560208701356100876080890160608a016103e2565b61009760a08a0160808b016103ff565b6040516001600160e01b031960e089901b1681526001600160a01b039687166004820152959094166024860152604485019290925260648401521515608483015260ff1660a482015260a085013560c482015260c085013560e482015261010401600060405180830381600087803b15801561011257600080fd5b505af1158015610126573d6000803e3d6000fd5b50506040516323b872dd60e01b81526001600160a01b038716600482015230602482015260448101869052738f3cf7ad23cd3cadbd9735aff958023239c6a06392506323b872dd9150606401602060405180830381600087803b15801561018c57600080fd5b505af11580156101a0573d6000803e3d6000fd5b505050506040513d601f19601f820116820180604052508101906101c49190610422565b5060405163095ea7b360e01b8152730c2c2963a4353ffd839590f7cb1e783688378814600482015260248101849052738f3cf7ad23cd3cadbd9735aff958023239c6a0639063095ea7b390604401602060405180830381600087803b15801561022c57600080fd5b505af1158015610240573d6000803e3d6000fd5b505050506040513d601f19601f820116820180604052508101906102649190610422565b50730c2c2963a4353ffd839590f7cb1e78368837881463486046a88461028d60208501856103b0565b61029d60408601602087016103b0565b886102ae60608801604089016103b0565b6102bb606089018961043f565b89608001356040518963ffffffff1660e01b81526004016102e398979695949392919061048d565b600060405180830381600087803b1580156102fd57600080fd5b505af1158015610311573d6000803e3d6000fd5b5050505050505050565b6001600160a01b038116811461033057600080fd5b50565b60008060008084860361014081121561034b57600080fd5b85356103568161031b565b94506020860135935060e0603f198201121561037157600080fd5b5060408501915061012085013567ffffffffffffffff81111561039357600080fd5b850160a081880312156103a557600080fd5b939692955090935050565b6000602082840312156103c257600080fd5b81356103cd8161031b565b9392505050565b801515811461033057600080fd5b6000602082840312156103f457600080fd5b81356103cd816103d4565b60006020828403121561041157600080fd5b813560ff811681146103cd57600080fd5b60006020828403121561043457600080fd5b81516103cd816103d4565b6000808335601e1984360301811261045657600080fd5b83018035915067ffffffffffffffff82111561047157600080fd5b60200191503681900382131561048657600080fd5b9250929050565b8881526001600160a01b038881166020830152878116604083015286811660608301528516608082015260e060a0820181905281018390526000610100848682850137600083860182015260c083019390935250601f909201601f191690910101969550505050505056fea2646970667358221220ec6081fadd0214cbfd6d76d42c8a488e0d7d4e2bdb30e53242af5753f162ff9764736f6c63430008090033",
  "linkReferences": {},
  "deployedLinkReferences": {}
}